{
  "contractName": "Ballot",
  "abi": [
    {
      "inputs": [
        {
          "internalType": "string[]",
          "name": "_candidateName",
          "type": "string[]"
        }
      ],
      "stateMutability": "nonpayable",
      "type": "constructor"
    },
    {
      "inputs": [
        {
          "internalType": "uint256",
          "name": "",
          "type": "uint256"
        }
      ],
      "name": "candidates",
      "outputs": [
        {
          "internalType": "string",
          "name": "name",
          "type": "string"
        },
        {
          "internalType": "uint256",
          "name": "voteCount",
          "type": "uint256"
        }
      ],
      "stateMutability": "view",
      "type": "function",
      "constant": true
    },
    {
      "inputs": [],
      "name": "candidatesCount",
      "outputs": [
        {
          "internalType": "uint256",
          "name": "",
          "type": "uint256"
        }
      ],
      "stateMutability": "view",
      "type": "function",
      "constant": true
    },
    {
      "inputs": [],
      "name": "currentUsers",
      "outputs": [
        {
          "internalType": "uint256",
          "name": "",
          "type": "uint256"
        }
      ],
      "stateMutability": "view",
      "type": "function",
      "constant": true
    },
    {
      "inputs": [],
      "name": "endTime",
      "outputs": [
        {
          "internalType": "uint256",
          "name": "",
          "type": "uint256"
        }
      ],
      "stateMutability": "view",
      "type": "function",
      "constant": true
    },
    {
      "inputs": [],
      "name": "maxUsers",
      "outputs": [
        {
          "internalType": "uint256",
          "name": "",
          "type": "uint256"
        }
      ],
      "stateMutability": "view",
      "type": "function",
      "constant": true
    },
    {
      "inputs": [],
      "name": "owner",
      "outputs": [
        {
          "internalType": "address",
          "name": "",
          "type": "address"
        }
      ],
      "stateMutability": "view",
      "type": "function",
      "constant": true
    },
    {
      "inputs": [],
      "name": "totalVotes",
      "outputs": [
        {
          "internalType": "uint256",
          "name": "",
          "type": "uint256"
        }
      ],
      "stateMutability": "view",
      "type": "function",
      "constant": true
    },
    {
      "inputs": [
        {
          "internalType": "string",
          "name": "",
          "type": "string"
        }
      ],
      "name": "users",
      "outputs": [
        {
          "internalType": "string",
          "name": "userID",
          "type": "string"
        },
        {
          "internalType": "address",
          "name": "voter",
          "type": "address"
        }
      ],
      "stateMutability": "view",
      "type": "function",
      "constant": true
    },
    {
      "inputs": [
        {
          "internalType": "address",
          "name": "",
          "type": "address"
        }
      ],
      "name": "voters",
      "outputs": [
        {
          "internalType": "uint256",
          "name": "voteIndex",
          "type": "uint256"
        },
        {
          "internalType": "bool",
          "name": "voted",
          "type": "bool"
        },
        {
          "internalType": "bool",
          "name": "weight",
          "type": "bool"
        }
      ],
      "stateMutability": "view",
      "type": "function",
      "constant": true
    },
    {
      "inputs": [
        {
          "internalType": "address",
          "name": "_voterAddress",
          "type": "address"
        }
      ],
      "name": "giveRightToVote",
      "outputs": [],
      "stateMutability": "nonpayable",
      "type": "function"
    },
    {
      "inputs": [
        {
          "internalType": "uint256",
          "name": "_voteIndex",
          "type": "uint256"
        }
      ],
      "name": "vote",
      "outputs": [],
      "stateMutability": "nonpayable",
      "type": "function"
    },
    {
      "inputs": [
        {
          "internalType": "string",
          "name": "_userID",
          "type": "string"
        },
        {
          "internalType": "address",
          "name": "_voterAddress",
          "type": "address"
        }
      ],
      "name": "database",
      "outputs": [],
      "stateMutability": "nonpayable",
      "type": "function"
    }
  ],
  "bytecode": "0x6080604052600080546001600160a01b0319163317905562000025426201518062000325565b60045560006005556000600655600060075560026008553480156200004957600080fd5b5060405162000e8638038062000e868339810160408190526200006c91620001d0565b60005b81518110156200012257600680549060006200008b836200037d565b919050555060036040518060400160405280848481518110620000be57634e487b7160e01b600052603260045260246000fd5b6020908102919091018101518252600091810182905283546001810185559382529081902082518051939460020290910192620000ff92849201906200012a565b50602082015181600101555050808062000119906200037d565b9150506200006f565b5050620003c7565b828054620001389062000340565b90600052602060002090601f0160209004810192826200015c5760008555620001a7565b82601f106200017757805160ff1916838001178555620001a7565b82800160010185558215620001a7579182015b82811115620001a75782518255916020019190600101906200018a565b50620001b5929150620001b9565b5090565b5b80821115620001b55760008155600101620001ba565b60006020808385031215620001e3578182fd5b82516001600160401b0380821115620001fa578384fd5b8185019150601f86818401126200020f578485fd5b825182811115620002245762000224620003b1565b620002338586830201620002f2565b81815285810190858701885b84811015620002e257815188018c603f8201126200025b578a8bfd5b8981015188811115620002725762000272620003b1565b62000285818901601f19168c01620002f2565b81815260408f818486010111156200029b578d8efd5b8d5b83811015620002ba578481018201518382018f01528d016200029d565b83811115620002cb578e8e85850101525b50508652505092880192908801906001016200023f565b50909a9950505050505050505050565b604051601f8201601f191681016001600160401b03811182821017156200031d576200031d620003b1565b604052919050565b600082198211156200033b576200033b6200039b565b500190565b6002810460018216806200035557607f821691505b602082108114156200037757634e487b7160e01b600052602260045260246000fd5b50919050565b60006000198214156200039457620003946200039b565b5060010190565b634e487b7160e01b600052601160045260246000fd5b634e487b7160e01b600052604160045260246000fd5b610aaf80620003d76000396000f3fe608060405234801561001057600080fd5b50600436106100b45760003560e01c8063689e1c0311610071578063689e1c031461012557806376ba09b8146101465780638da5cb5b146101595780639e7b8d611461016e578063a3ec138d14610181578063e1b0e802146101a3576100b4565b80630121b93f146100b95780630d15fd77146100ce57806318084da8146100ec5780632d35a8a2146100f45780633197cbb6146100fc5780633477ee2e14610104575b600080fd5b6100cc6100c73660046107fe565b6101ab565b005b6100d66102c6565b6040516100e391906109b3565b60405180910390f35b6100d66102cc565b6100d66102d2565b6100d66102d8565b6101176101123660046107fe565b6102de565b6040516100e392919061089c565b610138610133366004610777565b61039a565b6040516100e3929190610872565b6100cc6101543660046107b2565b610452565b610161610537565b6040516100e3919061085e565b6100cc61017c366004610756565b610546565b61019461018f366004610756565b6105ef565b6040516100e3939291906109bc565b6100d6610614565b60045442106101d55760405162461bcd60e51b81526004016101cc9061097c565b60405180910390fd5b336000908152600160208190526040909120015460ff16156102095760405162461bcd60e51b81526004016101cc906108be565b3360009081526001602081905260409091200154610100900460ff166102415760405162461bcd60e51b81526004016101cc90610945565b3360009081526001602081905260409091208281558101805460ff191682179055600380548390811061028457634e487b7160e01b600052603260045260246000fd5b906000526020600020906002020160010160008282546102a491906109d4565b925050819055506001600560008282546102be91906109d4565b909155505050565b60055481565b60075481565b60065481565b60045481565b600381815481106102ee57600080fd5b906000526020600020906002020160009150905080600001805461031190610a28565b80601f016020809104026020016040519081016040528092919081815260200182805461033d90610a28565b801561038a5780601f1061035f5761010080835404028352916020019161038a565b820191906000526020600020905b81548152906001019060200180831161036d57829003601f168201915b5050505050908060010154905082565b80516020818301810180516002825292820191909301209152805481906103c090610a28565b80601f01602080910402602001604051908101604052809291908181526020018280546103ec90610a28565b80156104395780601f1061040e57610100808354040283529160200191610439565b820191906000526020600020905b81548152906001019060200180831161041c57829003601f168201915b505050600190930154919250506001600160a01b031682565b6000546001600160a01b0316331461047c5760405162461bcd60e51b81526004016101cc906108e9565b6008546007541061049f5760405162461bcd60e51b81526004016101cc90610918565b806002836040516104b09190610842565b908152602001604051809103902060010160006101000a8154816001600160a01b0302191690836001600160a01b03160217905550816002836040516104f69190610842565b9081526020016040518091039020600001908051906020019061051a92919061061a565b5060016007600082825461052e91906109d4565b90915550505050565b6000546001600160a01b031681565b6000546001600160a01b031633146105705760405162461bcd60e51b81526004016101cc906108e9565b60045442106105915760405162461bcd60e51b81526004016101cc9061097c565b336000908152600160208190526040909120015460ff16156105c55760405162461bcd60e51b81526004016101cc906108be565b6001600160a01b0316600090815260016020819052604090912001805461ff001916610100179055565b6001602081905260009182526040909120805491015460ff8082169161010090041683565b60085481565b82805461062690610a28565b90600052602060002090601f016020900481019282610648576000855561068e565b82601f1061066157805160ff191683800117855561068e565b8280016001018555821561068e579182015b8281111561068e578251825591602001919060010190610673565b5061069a92915061069e565b5090565b5b8082111561069a576000815560010161069f565b80356001600160a01b03811681146106ca57600080fd5b919050565b600082601f8301126106df578081fd5b813567ffffffffffffffff808211156106fa576106fa610a63565b604051601f8301601f19908116603f0116810190828211818310171561072257610722610a63565b8160405283815286602085880101111561073a578485fd5b8360208701602083013792830160200193909352509392505050565b600060208284031215610767578081fd5b610770826106b3565b9392505050565b600060208284031215610788578081fd5b813567ffffffffffffffff81111561079e578182fd5b6107aa848285016106cf565b949350505050565b600080604083850312156107c4578081fd5b823567ffffffffffffffff8111156107da578182fd5b6107e6858286016106cf565b9250506107f5602084016106b3565b90509250929050565b60006020828403121561080f578081fd5b5035919050565b6000815180845261082e8160208601602086016109f8565b601f01601f19169290920160200192915050565b600082516108548184602087016109f8565b9190910192915050565b6001600160a01b0391909116815260200190565b6000604082526108856040830185610816565b905060018060a01b03831660208301529392505050565b6000604082526108af6040830185610816565b90508260208301529392505050565b602080825260119082015270165bdd48185b1c9958591e481d9bdd1959607a1b604082015260600190565b6020808252601590820152742cb7ba9030b932903737ba103a34329037bbb732b960591b604082015260600190565b6020808252601390820152724d6f7265207468616e206d6178566f7465727360681b604082015260600190565b6020808252601c908201527f596f7520646f6e2774206861766520617574686f72697a6174696f6e00000000604082015260600190565b60208082526018908201527f596f752063616e277420766f7465207269676874206e6f770000000000000000604082015260600190565b90815260200190565b92835290151560208301521515604082015260600190565b600082198211156109f357634e487b7160e01b81526011600452602481fd5b500190565b60005b83811015610a135781810151838201526020016109fb565b83811115610a22576000848401525b50505050565b600281046001821680610a3c57607f821691505b60208210811415610a5d57634e487b7160e01b600052602260045260246000fd5b50919050565b634e487b7160e01b600052604160045260246000fdfea2646970667358221220d77594e8626e324a6d1d9565081c73f371abb71b01317cb5816214150f9857a764736f6c63430008010033",
  "immutableReferences": {},
  "source": "// SPDX-License-Identifier: MIT\r\npragma solidity >=0.8.0 <0.9.0;\r\n\r\n/// @title Election contract\r\n/// @author Joel Vaz\r\n/// @notice Authorize and vote contract with end vote time\r\n\r\ncontract Ballot {\r\n\r\n    struct Voter {\r\n        uint voteIndex;\r\n        bool voted;\r\n        bool weight; //authorization\r\n    }\r\n\r\n    struct Candidate {\r\n        string name;\r\n        uint voteCount;\r\n    }\r\n\r\n    struct Database {\r\n        string userID;\r\n        address voter;\r\n    }\r\n\r\n    address public owner = msg.sender;\r\n    mapping(address => Voter) public voters;\r\n    mapping(string => Database) public users;\r\n    Candidate[] public candidates;\r\n    //uint public endTime = block.timestamp + 1;\r\n    uint public endTime = block.timestamp + 86400; //86400 = 24 hours\r\n    uint public totalVotes = 0;\r\n    uint public candidatesCount = 0;\r\n    uint public currentUsers = 0;\r\n    //uint public maxUsers = 10;\r\n    uint public maxUsers = 2;\r\n\r\n    modifier OnlyOwner() {\r\n        require(msg.sender == owner, \"You are not the owner\");\r\n        _;\r\n    }\r\n\r\n    modifier VotingRequest() {\r\n        require(block.timestamp < endTime, \"You can't vote right now\");\r\n        require(!voters[msg.sender].voted, \"You already voted\");\r\n        _;\r\n    }\r\n\r\n    constructor(string[] memory _candidateName) {\r\n        for (uint i = 0; i < _candidateName.length; i++) {\r\n            candidatesCount ++;\r\n            candidates.push(Candidate({\r\n                name: _candidateName[i],\r\n                voteCount: 0}));\r\n        }\r\n    }\r\n\r\n    function giveRightToVote(address _voterAddress) public OnlyOwner VotingRequest {\r\n        voters[_voterAddress].weight = true;\r\n    }\r\n\r\n    function vote(uint _voteIndex) public VotingRequest {\r\n        require(voters[msg.sender].weight, \"You don't have authorization\");\r\n        voters[msg.sender].voteIndex = _voteIndex;\r\n        voters[msg.sender].voted = true;\r\n        candidates[_voteIndex].voteCount += 1;\r\n        totalVotes += 1;\r\n    }\r\n\r\n    function database(string memory _userID, address _voterAddress) public OnlyOwner {\r\n        require(currentUsers < maxUsers, \"More than maxVoters\");\r\n        users[_userID].voter = _voterAddress;\r\n        users[_userID].userID = _userID;\r\n        currentUsers += 1;\r\n    }\r\n}\r\n",
  "sourcePath": "C:/Users/Joel/Documents/GitHub/d-vote/src/contracts/Ballot.sol",
  "compiler": {
    "name": "solc",
    "version": "0.8.1+commit.df193b15.Emscripten.clang"
  },
  "schemaVersion": "3.3.4",
  "updatedAt": "2021-03-27T11:18:15.442Z",
  "networkType": "ethereum",
  "devdoc": {
    "author": "Joel Vaz",
    "kind": "dev",
    "methods": {},
    "title": "Election contract",
    "version": 1
  },
  "userdoc": {
    "kind": "user",
    "methods": {},
    "notice": "Authorize and vote contract with end vote time",
    "version": 1
  }
}